:100000000C945A000C9477000C9477000C947700B1
:100010000C9477000C9497000C9477000C94770064
:100020000C9477000C9477000C9477000C94770074
:100030000C9477000C9477000C94C4000C94770017
:100040000C9477000C9477000C9477000C94770054
:100050000C9477000C9477000C9477000C94770044
:100060000C9477000C9477000C9477000C94770034
:100070000C9477000C9477000C9477000C94770024
:100080000C9477000C9477000C9477000C94770014
:100090000C9477000C9477000C9477000C94770004
:1000A0000C9477000C9477000C9477000C947700F4
:1000B0000C94770011241FBECFEFD8E0DEBFCDBF78
:1000C00011E0A0E0B1E0E4E9F2E102C005900D9298
:1000D000A031B107D9F721E0A0E1B1E001C01D9244
:1000E000A434B207E1F70E9425010C9448090C944E
:1000F0000000809184008770863020F0863021F0E7
:1001000081E0089580E008958FEF089510924301F3
:1001100010924201109241011092400110923F0151
:1001200010923E0108955D9808955D9A08958F9309
:100130009F93EF93FF938FB78F9380910001EBE133
:10014000F1E0E80FF11D9081EBB1E97FE92BEBB90C
:10015000E3E1F1E0E80FF11D908198B98395877094
:1001600080930001EE27E0930F01EE27E09310014A
:10017000E093110116BC84E08BBB8F918FBFFF9180
:10018000EF919F918F9118951F920F920FB60F923A
:1001900011242F938F939F93489B4AC08BB19091CA
:1001A0001C01897F892B8BB98091140188B9109229
:1001B000000180910F01811131C080911001909157
:1001C0001101892BC1F41092340110923501109263
:1001D00036011092370110923001109231011092C5
:1001E00032011092330110922B0110922C011092C7
:1001F0002D0110922E018091100190911101019614
:1002000090931101809310018C3B924038F081E073
:1002100080930F01109211011092100184E08BBBAA
:100220009F918F912F910F900FBE0F901F90189557
:100230008BB190911B01897F892B8BB98091130120
:1002400088B981E080930001B4CFCF93DF9300D0D1
:100250001F92CDB7DEB780E88093610010926100F5
:10026000399A419A539A5B9A3D9A459A3C9A449A94
:100270003B9A439A3A9A429A519A599A529A5A9A5E
:10028000509858982098289A2198299A56985E9ABA
:1002900057985F9A27982F9A22982A9A559A5D9A8A
:1002A00080E090E00E94D607833008F082E08093DF
:1002B0000E0114BC16BC8CE287BD84B5826084BD7F
:1002C00085B5846085BD80916E00826080936E00EC
:1002D000109280001092810010928500109284008C
:1002E00080918100826080938100DA9A8091680019
:1002F00084608093680080916D00816080936D00C0
:10030000789402E093E0F92E20EEC22EDD24D394FF
:100310000E9495002DE02A95F1F700004E9BB6C093
:1003200081E0809303014F9BB4C091E09093020160
:10033000189BB2C0AA24A394A0920501199BAFC038
:10034000BB24B394B09204011F9BACC021E0209366
:1003500009011A9BAAC081E0809308010E949300C2
:100360009DE09A95F1F700001F9BA2C0AA24A394D8
:10037000A0920A011A9B9FC0BB24B394B0920101C2
:100380000E9495002DE02A95F1F700000E9493004D
:100390008DE08A95F1F700000E9495009DE09A9506
:1003A000F1F700000E9493002DE02A95F1F700007C
:1003B0004E9984C04F9982C081E080931201189BAE
:1003C00083B10E9495009DE09A95F1F7000080911D
:1003D0001201882309F481C04E9B73C0AA24A39400
:1003E000A0920B014F9B70C0BB24B394B0920C0140
:1003F000189B6DC021E020930D01199B6BC081E01B
:10040000809307010E9493002DE02A95F1F70000E8
:100410000E94950080910F01882309F477C0809194
:100420003D018F5F80933D0180910E01823009F084
:100430005EC081E080933C0110923B0110923A0132
:1004400080913C01882309F48AC0419A80913B0144
:10045000882309F486C05B9A80910F01882309F4F0
:100460000EC180910D018111A1C0809141018111C6
:1004700081C080914301813009F475C008F491C0B6
:10048000823009F48BC0109243016FC010920301B7
:100490004ACF109202014CCF109205014FCF10921B
:1004A000040152CF1092090154CF1092080156CF87
:1004B00010920A015FCF1092010162CF10921201D7
:1004C0007ECF10920B018ECF10920C0191CF109223
:1004D0000D0193CF1092070195CF91E090930B01FE
:1004E00090930C0190930D01909307018BCF809115
:1004F0000E01813029F410923C0180933B019ECF84
:1005000091E090933C0190933B0198CF80910E0134
:10051000823081F480913A018F5F80933A0180911B
:100520003A0187FF19C0AA24A394A0923C0110921B
:100530003B0186CF90910E01913071F480913A0188
:100540008F5F80933A0110923C0180913A0187FFBE
:10055000EECF90933B0174CF10923C01E8CF4198CD
:1005600075CF5B9879CF0093430110923F0121E052
:100570002093410180910C01811162C08091400162
:1005800081111EC080914201813099F008F454C05D
:10059000823009F44EC0109242010DC0F092430126
:1005A000E4CFBB24B394B0924301DFCF109241015A
:1005B000E1CF0093420110923E0191E090934001FF
:1005C00080910B01811102C00E94860080910A0176
:1005D000811104C01092430110923F0180910901E2
:1005E000882321F080910801811104C010924201FA
:1005F00010923E0180914301823029F1833061F1F4
:10060000813099F590913D0195FD2FC080933F0178
:1006100080914201823061F1833009F4A5C08130BC
:1006200009F0A8C090913D0195FDA4C080933E01C2
:1006300026C0F0924201BFCF81E080934201BBCF40
:1006400010924001BDCF80913D0184FD0EC0AA24CF
:10065000A394A0923F01DCCF80913D0183FD05C0B2
:10066000BB24B394B0923F01D3CF10923F01D0CFBF
:1006700080913D0184FD7EC021E020933E01809168
:100680000F01882309F490C08091070181117FC078
:100690008091060181110CC080910E01823009F019
:1006A0006CC091E090930E01AA24A394A09206013D
:1006B0008091030190E0811190E28091020181110B
:1006C00090618091050181119860809104018111F0
:1006D000946080910A01882309F464C0809101012B
:1006E000882309F45FC082E020910901222321F0D0
:1006F000209108012111846020913F0121118D7FFB
:1007000020913E0121118B7F9093230180931B0147
:100710009093240180931C0188B190912301837CE4
:10072000892B8093130188B190912401837C892BBC
:10073000809314018091380190913901009769F0FC
:1007400001979093390180933801892B31F460919E
:100750000E0180E090E00E94DE078FE39FE10197A9
:10076000F1F700C00000D4CD80913D0183FD02C0AF
:1007700081E05CCF10923E0182CF80910E018130EA
:1007800019F410920E0190CF00930E018DCF80913D
:100790000601882321F0D0923901C09238011092CD
:1007A000060186CF80E0A0CF0E94860080910E01D6
:1007B000823009F070C38091050190910801109179
:1007C0000301B0900201B982E0900401911156C278
:1007D000811126C0609134017091350180913601FC
:1007E0009091370120E030E040E050E40E945D0845
:1007F00087FF16C0609134017091350180913601F8
:100800009091370120E030E040E85FE30E94F1077B
:1008100060933401709335018093360190933701D2
:10082000E11026C06091340170913501809136014C
:100830009091370120E030E040E050EC0E94430905
:100840001816B4F46091340170913501809136012D
:100850009091370120E030E040E85FE30E94F0072C
:100860006093340170933501809336019093370182
:10087000111126C0609130017091310180913201D7
:100880009091330120E030E040E050E40E945D08A8
:1008900087FF16C060913001709131018091320163
:1008A0009091330120E030E040E85FE30E94F107DF
:1008B0006093300170933101809332019093330142
:1008C000A980A11026C06091300170913101809102
:1008D00032019091330120E030E040E050EC0E9482
:1008E00043091816B4F46091300170913101809180
:1008F00032019091330120E030E040E85FE30E9454
:10090000F00760933001709331018093320190932E
:10091000330180912F01882349F080912F0188377E
:1009200028F480912F018F5F80932F0180910B011C
:10093000882321F090910C01911192C290912F0186
:10094000911135C2811126C060912B0170912C014B
:1009500080912D0190912E0120E030E040E85FE38E
:100960000E945D0887FF16C060912B0170912C01D9
:1009700080912D0190912E0120E030E040E85FE36E
:100980000E94F10760932B0170932C0180932D013D
:1009900090932E0180910C01811126C060912B0152
:1009A00070912C0180912D0190912E0120E030E07A
:1009B00040E85FEB0E9443091816B4F460912B01E4
:1009C00070912C0180912D0190912E0120E030E05A
:1009D00040E85FE30E94F00760932B0170932C01C5
:1009E00080932D0190932E0121E020932F0160919F
:1009F000340170913501809136019091370120E0EA
:100A000030E040E050E40E945D0887FF11C0609133
:100A1000340170913501809136019091370120E0C9
:100A200030E040E050EC0E94430910E01816C4F09A
:100A30000E9479008090340190903501A090360199
:100A4000B0903701682F880F770B880B990B0E94A5
:100A50009308A50194010E94F1070E946208162FD5
:100A60006091300170913101809132019091330198
:100A700020E030E040E050E40E945D0887FF11C0B4
:100A80006091300170913101809132019091330178
:100A900020E030E040E050EC0E94430918160CF4CE
:100AA000E2C10E9479008090300190903101A090C5
:100AB0003201B0903301682F880F770B880B990BA8
:100AC0000E949308A50194010E94F1070E94620808
:100AD0006B8360912B0170912C0180912D0190917D
:100AE0002E0120E030E040E85FE30E945D08181628
:100AF0000CF4BBC160912B0170912C0180912D01F0
:100B000090912E010E946208812F8170482E912FB2
:100B10009270592E212F2470622E812F8870782E8A
:100B2000912F9072292E212F2074322E8B8181706B
:100B3000B82E9B81927099832B8124702A838B819C
:100B40008870E82E9B819071892E2B812072922EC5
:100B50008B818074A82E462F4170362F3270262F3D
:100B60002470962F9870E62FE071762F7072562FB2
:100B70005074B0910D01A0910101F091070180E046
:100B800014FD80E2211080613110886017FD8460BF
:100B900010910A01111112E0309009013110146016
:100BA0008093240110931C0180E0411080E25110D9
:100BB00080616110886071108460809325011093BA
:100BC0001D0180E0811080E291108061A110886099
:100BD000AB80A7FC84608093260110931E0180E007
:100BE000B11080E2B980B1108061AA80A110886044
:100BF000E11084608093270110931F0180E2B82EDA
:100C0000B09228011093200180E0B11101C080E270
:100C1000A11101C08061F11101C088608093290198
:100C20001093210180E0E11180E271118061511186
:100C3000886067FD846080932A011093220180E020
:100C4000411180E23111806121118860911184602D
:100C50008093230110931B0190E080E028B1FC01F8
:100C6000ED5DFE4F3081237C232BFC01ED5EFE4FBA
:100C7000208301968830910589F75CCD811126C0CB
:100C80006091340170913501809136019091370166
:100C900020E030E040E251E40E945D0887FF16C08A
:100CA0006091340170913501809136019091370146
:100CB00026E636E646EE5FE30E94F10760933401D4
:100CC000709335018093360190933701E11026C06F
:100CD0006091340170913501809136019091370116
:100CE00020E030E040E251EC0E9443091816B4F4D1
:100CF00060913401709135018091360190913701F6
:100D000026E636E646EE5FE30E94F0076093340184
:100D1000709335018093360190933701111126C0ED
:100D200060913001709131018091320190913301D5
:100D300020E030E040E251E40E945D0887FF16C0E9
:100D400060913001709131018091320190913301B5
:100D500026E636E646EE5FE30E94F1076093300137
:100D6000709331018093320190933301B980B110B7
:100D7000D0CD60913001709131018091320190911C
:100D8000330120E030E040E251EC0E9443091816A4
:100D90000CF0BFCD60913001709131018091320132
:100DA0009091330126E636E646EE5FE3A8CD9091BA
:100DB0002F01983708F41BCE811126C060912B01BA
:100DC00070912C0180912D0190912E0120E030E056
:100DD00040E450E40E945D0887FF16C060912B013B
:100DE00070912C0180912D0190912E0120E030E036
:100DF00040E85FE30E94F10760932B0170932C01A0
:100E000080932D0190932E0180910C018111EFCDE3
:100E100060912B0170912C0180912D0190912E01F8
:100E200020E030E040E450EC0E94430918160CF03A
:100E3000DECD60912B0170912C0180912D0190915C
:100E40002E0120E030E040E85FE30E94F00760936D
:100E50002B0170932C0180932D0190932E01C7CD0F
:100E600010922F01C4CD1B8234CE0E947900809055
:100E70002B0190902C01A0902D01B0902E01682F95
:100E8000880F770B880B990B0E949308A50194019A
:100E90000E94F10737CE80910E01813009F063C0C6
:100EA00080910301811180E2909102019111806192
:100EB00090910501282F91112860909104019111C2
:100EC000246090910901911192E030910801311153
:100ED00094602093230190931B012093250190930C
:100EE0001D012093270190931F0120910A012111D8
:100EF00022E030910101311124608093240120937C
:100F00001C018093260120931E0180932A012093C7
:100F10002201109228012093200180910B01811160
:100F200080E220910C012111806120910D0121119D
:100F3000886020910701211184608093290190939A
:100F4000210190E080E028B1FC01ED5DFE4F308191
:100F5000237C232BFC01ED5EFE4F2083019688301D
:100F6000910589F7E7CB90E080E0FC01ED5DFE4F55
:100F70002CE32083FC01E55EFE4F26E0A22EA0823A
:100F800001968830910589F790E080E028B1FC0156
:100F9000ED5DFE4F3081237C232BFC01ED5EFE4F87
:100FA000208301968830910589F7C4CBF999FECF4B
:100FB00092BD81BDF89A992780B50895262FF99999
:100FC000FECF92BD81BDF89A019700B4021639F0A8
:100FD0001FBA20BD0FB6F894FA9AF99A0FBE089579
:100FE0005058BB27AA270E9408080C9409090E94A0
:100FF000FB0838F00E94020920F039F49F3F19F4F1
:1010000026F40C94F8080EF4E095E7FB0C94F20833
:10101000E92F0E941A0958F3BA1762077307840769
:10102000950720F079F4A6F50C943C090EF4E095B0
:101030000B2EBA2FA02D0B01B90190010C01CA0192
:10104000A0011124FF27591B99F0593F50F4503E3D
:1010500068F11A16F040A22F232F342F4427585F2F
:10106000F3CF469537952795A795F0405395C9F747
:101070007EF41F16BA0B620B730B840BBAF09150FF
:10108000A1F0FF0FBB1F661F771F881FC2F70EC09E
:10109000BA0F621F731F841F48F487957795679571
:1010A000B795F7959E3F08F0B0CF9395880F08F05D
:1010B0009927EE0F9795879508950E94CE0808F41A
:1010C00081E008950E94220988F09F5798F0B92F77
:1010D0009927B751B0F0E1F0660F771F881F991F6D
:1010E0001AF0BA95C9F714C0B13091F00E943C09CA
:1010F000B1E008950C943C09672F782F8827B85FDA
:1011000039F0B93FCCF3869577956795B395D9F7C4
:101110003EF490958095709561957F4F8F4F9F4FCE
:101120000895E89409C097FB3EF4909580957095DA
:1011300061957F4F8F4F9F4F9923A9F0F92F96E923
:10114000BB279395F695879577956795B795F11198
:10115000F8CFFAF4BB0F11F460FF1BC06F5F7F4F35
:101160008F4F9F4F16C0882311F096E911C0772347
:1011700021F09EE8872F762F05C0662371F096E850
:10118000862F70E060E02AF09A95660F771F881F1F
:10119000DAF7880F9695879597F90895990F0008C3
:1011A000550FAA0BE0E8FEEF16161706E807F90739
:1011B000C0F012161306E407F50798F0621B730BD4
:1011C000840B950B39F40A2661F0232B242B252B55
:1011D00021F408950A2609F4A140A6958FEF811DF8
:1011E000811D089597F99F6780E870E060E0089599
:1011F0009FEF80EC089500240A941616170618062F
:101200000906089500240A9412161306140605060A
:101210000895092E0394000C11F4882352F0BB0F9B
:1012200040F4BF2B11F460FF04C06F5F7F4F8F4FFE
:101230009F4F089557FD9058440F551F59F05F3F39
:1012400071F04795880F97FB991F61F09F3F79F0E8
:1012500087950895121613061406551FF2CF46956A
:10126000F1DF08C0161617061806991FF1CF8695EC
:101270007105610508940895E894BB2766277727D0
:10128000CB0197F908950E94CE0808F48FEF0895D6
:04129000F894FFCF00
:101294000101010101010101010101010101020139
:00000001FF
